:100000000C942A030C9471030C9471030C947103E7
:100010000C9471030C9471030C9471030C94710390
:100020000C9471030C9471030C945C280C942E298D
:100030000C94A3200C9471030C9471030C94710321
:100040000C9471030C9471030C9471030C94710360
:100050000C9471030C94F0200C9471030C947103B4
:100060000C9471030C9471030C9471030C94710340
:100070000C9471030C9471030C9471030C94710330
:100080000C9471030C9471030C9471030C94710320
:100090000C9471030C9471030C9471030C94710310
:1000A0000C9471030C9471030C947103C40EC70E6D
:1000B000CF0ED40ED90EDE0EE30EE80EED0EF20ECC
:1000C000F70EFC0EFE0E010F040F070F0A0F0D0FA7
:1000D0000F0F140FEC15EC151E161E166B16891655
:1000E000AA17AA17941629173A173A179A17AA1790
:1000F000AA17A3174A184A185C185C1853185C18FA
:100100005C185C184A184A1858185C185C1858187B
:100110009B29C229BA2AC229BA2A0E2A312ABA2A06
:10012000882A972A29003A003B003C003D00420003
:100130004300440045004C0049004B004E00350090
:100140001E001F0020002100260027002D002E0089
:1001500053005400550056002B0014001A000800EC
:100160001500120013002F0030005F0060006100D6
:100170005700390004001600070009000F00330083
:10018000340028005C005D005E005700E100640060
:100190001D001B000600360037003800E50059003E
:1001A0005A005B005800E000E200E30051004F00FD
:1001B000E600E400015150002C006200630058008A
:1001C0003E003F00400041002200230024002500A3
:1001D00017001C0018000C000A002A002A00460024
:1001E000310052000B000D000E0019000500110037
:1001F00010000000000000000000000000000000EF
:10020000A800AA00A90000000000000000000000F3
:1002100000000000000000000000000000000000DE
:10022000B2000000000000000000C25CC35CC55CBE
:10023000C75C00000000000000000000000000009B
:10024000000000000000C45CC65CC85C0000000048
:100250000000000000000000000000000000CD5C75
:10026000CE5CD25CD45C0000000000000000000006
:100270000000000000000000000000004E004D00E3
:100280000000000001004A00000000000000000023
:10029000AE00AD00AC00AB000000000000000000AC
:1002A000C95CCB5C00000000CA5C000000000000DC
:1002B00000004B00CC5C00000000000000000000CB
:1002C0000000000032190A00047F3F1F64321464EA
:1002D0003214783C1E1E140A052223252628292ABA
:1002E0002C2D2F3032333536383A3B3D3E40424399
:1002F0004547494A4C4E5051535557595A5C5E60D8
:1003000062646668696B6D6F71737577797B7D7FE9
:1003100081838587898A8C8E90929496989A9C9EE8
:100320009FA1A3A5A7A8AAACAEAFB1B3B4B6B8B904
:10033000BBBCBEBFC1C2C3C5C6C7C9CACBCCCDCE6C
:10034000D0D1D2D2D3D4D5D6D7D7D8D9D9DADADB4F
:10035000DBDBDCDCDCDCDCDDDDDDDDDCDCDCDCDCDB
:10036000DBDBDBDADAD9D9D8D7D7D6D5D4D3D2D21A
:10037000D1D0CECDCCCBCAC9C7C6C5C3C2C1BFBE02
:10038000BCBBB9B8B6B4B3B1AFAEACAAA8A7A5A36D
:10039000A19F9E9C9A98969492908E8C8A8987852C
:1003A00083817F7D7B79777573716F6D6B6968660B
:1003B0006462605E5C5A5957555351504E4C4A49DD
:1003C00047454342403E3D3B3A3836353332302F85
:1003D0002D2C2A292826252322FFAA7F55400001FB
:1003E00001010101010101010202020202020202F5
:1003F00002030303030303030304040404040404C7
:10040000050505050506060606060707070707088A
:10041000080808090909090A0A0A0B0B0B0C0C0C3D
:100420000D0D0D0E0E0E0F0F0F10101111111212D7
:1004300013131414151516161717181819191A1A54
:100440001B1B1C1D1D1E1E1F2020212222232424B5
:10045000252626272829292A2B2C2D2D2E2F3031F1
:100460003232333435363738393A3B3C3D3E3F4003
:100470004142434445464748494A4C4D4E4F5051EE
:100480005354555658595A5B5D5E5F6162646566A8
:1004900068696B6C6D6F7072737577787A7B7D7E2F
:1004A0008082838587888A8C8E8F91939596989A7F
:1004B0009C9EA0A2A3A5A7A9ABADAFB1B3B5B7BA97
:1004C000BCBEC0C2C4C6C9CBCDCFD1D4D6D8DBDD6B
:1004D000DFE2E4E7E9EBEEF0F3F5F8FAFDFF040301
:1004E000300000000E036B00620064003100390030
:1004F0007800000010034B004200440046006100F9
:100500006E00730000000403090409023B000201AD
:1005100000A0FA09040000010301010009211101F2
:1005200000012240000705810308000A09040100B8
:10053000010300000009211101000122BC00070590
:10054000820320000A1201100100000008424B91B2
:100550000101000102030105010902A1018502094F
:1005600001A1000509190129051500250195057549
:1005700001810295017503810105010930093115D9
:1005800081257F95027508810609381581257F959B
:100590000175088106050C0A38021581257F950131
:1005A00075088106C0C005010980A10185031901F4
:1005B0002AB700150126B700950175108100C00506
:1005C0000C0901A101850419012AA002150126A028
:1005D00002950175108100C005010906A10185057C
:1005E000050719E029E71500250195087501810225
:1005F0000507190029EF1500250195F07501810205
:1006000005081901290595057501910295017503E4
:100610009101C005010906A101050719E029E715A7
:100620000025019508750181029501750881010574
:1006300007190029FF150026FF009506750881009F
:1006400005081901290595057501910295017503A4
:100650009101C00011241FBECFEFDAE0DEBFCDBF95
:1006600004B603FE27C080919B0390919C03A09148
:100670009D03B0919E038730904BA740B04BD1F4BF
:1006800010929B0310929C0310929D0310929E0364
:1006900014BE84B7877F84BF0FB6F894A895809165
:1006A0006000886180936000109260000FBEE0E0FF
:1006B000F8E3099511E0A0E0B1E0E6EDF8E502C04D
:1006C00005900D92AE3CB107D9F723E0AEECB1E056
:1006D00001C01D92AB39B207E1F70E949A250C9434
:1006E000692C0C9400000C946F060C946D060C940D
:1006F0008F0380FF02C0229A01C022982A9881FFAE
:1007000002C0209A01C02098289882FF02C0219A36
:1007100001C0219829980C94E90381E0089581E0B3
:10072000089508950C9491031F93CF93DF9300D005
:1007300000D01F92CDB7DEB749835A836B833091C7
:10074000520289819A81311114C0662359F0222303
:1007500049F00E94861D182F682F89819A810E9476
:100760002F1D03C00E945A1D182F69817A81812F85
:1007700004C00E94861D69817A810F900F900F90AE
:100780000F900F90DF91CF911F910C945404FC01B6
:10079000262F408151816281738184810C9494035E
:1007A000CF93DF93EC0160E00E94C703BE01DF91AD
:1007B000CF910C9492030E943C210E94BE1E811195
:1007C00002C00E94671F0E948F100C9473030C9448
:1007D0007503089581E008950C94EA03CF93C82F20
:1007E0000E9479038C2F0E94EC03CF910895089505
:1007F0000E9438180E94F7032FEF84E39CE02150F9
:1008000080409040E1F700C000000C9416210F9347
:100810001F93CF93DF93EC0161E00E94C7038C012B
:10082000BE010E9477038823A9F1BE01C8010E947E
:10083000F80F882379F1BE01C8010E946211882354
:1008400049F1BE01C8010E94B411882319F1BE010B
:10085000C8010E94DF128823E9F0BE01C8010E948E
:10086000AD0E8823B9F08A81882369F001158CE5E3
:10087000180731F00E3D1C4531F40E94671F0AC075
:100880000E94F80307C0CE01DF91CF911F910F9115
:100890000C948D0380E0DF91CF911F910F9108950B
:1008A00080E090E00895089528E6829FC001112419
:1008B000FC012DE0729FE00DF11D1124E60FF11DEA
:1008C000EE0FFF1FEC5DFE4F859194910895880F08
:1008D000991FFC01EC53FD4F859194910895CF939E
:1008E000DF930E9454040E948705EC018115904516
:1008F00008F041C0C11580E4D80708F0D1C0C83E57
:10090000D10510F5C03ED10508F0FDC0C83AD105AB
:1009100078F4C53AD10508F0A2C0C130D10509F478
:10092000F2C008F4EEC0C430D10508F0ECC0E9C054
:10093000CF3BD10508F49BC0C03CD10508F4E1C011
:10094000CE01805C91099EC0C11590E2D90758F490
:10095000C11521E0D20708F0D6C0C03FD10508F488
:10096000D0C0D065D0C0C11580E3D80708F08EC0D4
:10097000CE019F7087C0C11595E5D90708F043C027
:10098000C11524E5D20708F0A2C0C11582E5D80739
:1009900008F5C11591E5D90708F085C0CE0174E0CE
:1009A000969587957A95E1F783709C2F937021E057
:1009B00030E002C0220F331F9A95E2F73C68382BD3
:1009C000CF70C695C69580E2C89FE0011124C22B66
:1009D000D32B99C09E01237033278C2F8695869543
:1009E000C115D34508F064C0C1E0D0E002C0CC0F0F
:1009F000DD1F2A95E2F720E2829FC0011124C82B57
:100A0000D92BDC6880C0C11529E5D207A0F4C11537
:100A100088E5D80708F060C0C11596E5D90708F049
:100A200070C08C2F0E941B068F71C82FD0E0DC2F66
:100A3000CC27D06268C0C1152AE5D20708F451C09E
:100A4000CE0190568115904208F05BC08D2F8F71BA
:100A50000E941B06DD27D0628F71D82B54C0C55A67
:100A6000D0E0C65ADE4FC881D0E0D0644CC0C85A2E
:100A7000D0E0CC0FDD1FC45DDE4F0990D881C02DC2
:100A8000D46441C00E946704EC013DC0CE019927A7
:100A9000D3FF03C0EC01D86C36C0EC01D06C33C07E
:100AA000DF70D06A30C0DC2FCC27C16FD06A2BC07A
:100AB000C1E0D0E002C0CC0FDD1F2A95E2F720E2B2
:100AC000829FC0011124C82BD92BDA681CC0DC2FEF
:100AD000CC27C46FD06A17C0DC2FCC27C06FD06A78
:100AE00012C08C2F8F700E941B0694E0D695C7957C
:100AF0009A95E1F7CF70D0E0DC2FCC27D069C82BD6
:100B000002C0C0E0D0E0CE01DF91CF9108958238DD
:100B1000910569F1B0F48133910509F46DC048F491
:100B20008932910509F463C08A32910509F469C0DC
:100B300008958533910509F455C089339105B9F0BD
:100B40000895833E910569F138F4803E9105B1F036
:100B5000823E910509F10895863E9105A9F1873EEF
:100B60009105B9F1843E910509F064C023C020913C
:100B70008C0320FD4FC021FD4DC0089580918C0352
:100B800080FD44C080918D0380FF44C080918C0320
:100B900084FD42C083EE4DC080918C0382FF38C03B
:100BA000F5CF80918C0382FD33C080918D0380FD51
:100BB00031C0ECCF80918D0381FF32C080918C03D6
:100BC00084FD2AC087EE35C080918C0383FF26C048
:100BD000F5CF80918C0383FD21C080918D0381FD31
:100BE0001FC0ECCF80918C0385FD1CC01DC080917F
:100BF0008C0385FD19C016C080918C0386FD16C03C
:100C000017C080918C0386FD13C010C089E311C00A
:100C100082EE0FC080EE0DC080E00BC086EE09C0F2
:100C200084EE07C089E205C085E303C08AE201C003
:100C300081E390E0089590918C0392FF0DC0282FDE
:100C40002871283019F4877F846006C0282F24710A
:100C5000243011F48B7F886093FF0DC0282F2871FA
:100C6000283119F4877E846106C0282F247124312D
:100C700011F48B7E886120918D0320FF0DC0382FE9
:100C80003871383019F4877F816006C0382F317190
:100C9000313011F48E7F886021FF0DC0282F28711C
:100CA000283119F4877E816106C0282F21712131F6
:100CB00011F48E7E886194FD877E0895E82FF0E020
:100CC000EE0FFF1FE45CFC4F808191810895089531
:100CD00080EA8A95F1F7089508950C946C060C94B7
:100CE0006C06CF93DF93AAE6B1E042E751E061E002
:100CF00070E08D91E82FE295EF70F0E021A18F7008
:100D0000EB0102C0CC0FDD1F8A95E2F7CE019C2FCC
:100D10009095922391A392A1892B82A34A175B07F6
:100D200041F7ADE5B1E04AE651E061E070E08D9158
:100D3000E82FE295EF70F0E021A18F70EB0102C087
:100D4000CC0FDD1F8A95E2F7CE019C2F9095922360
:100D500091A392A1892B82A34A175B0741F7ECE28A
:100D6000F3E0ACE3B3E08CE393E0119211921D92B7
:100D70001D928E179F07C9F788E00E945007DF91E8
:100D8000CF910C94DB036F927F928F929F92AF92E0
:100D9000BF92CF92DF92EF92FF920F931F93CF9368
:100DA000DF938AE6C82E81E0D82E0CE213E09CE3A4
:100DB000A92E93E0B92E712C88248394912CF601EE
:100DC00081916F01C82FC295CF70D0E099A18F702B
:100DD000740101C0EE0C8A95EAF7892F8E2989A348
:100DE0008AA16E2C609486218AA30E946806EDE594
:100DF000F1E040E050E020E030E06191A62FA295C4
:100E0000AF70B0E090968C9190E06F7002C09595B5
:100E100087956A95E2F780FD08C0C401042E02C0E0
:100E2000880F991F0A94E2F702C080E090E0282B17
:100E3000392B4F5F5F4F4D305105F9F689A168227C
:100E400069A28AA1E82AEAA2F80180819181281783
:100E5000390721F03183208381E001C080E0782AC6
:100E60000E5F1F4FA016B10609F0A9CF272D48E04D
:100E70006CE373E08CE293E00E9451070E94E70369
:100E8000872DDF91CF911F910F91FF90EF90DF9011
:100E9000CF90BF90AF909F908F907F906F9008956C
:100EA0000895FF920F931F93CF93DF93F82E092F8E
:100EB000162FD72FC42F222349F081E08093D00131
:100EC0000E94D5209093CF018093CE018091D001D4
:100ED0008823D9F08091CE019091CF010E94E1202A
:100EE000069798F0EF2DF02FA12FBD2F80E090E016
:100EF0004C2F50E08417950734F4219131912D93B4
:100F00003D930196F7CF1092D001DF91CF911F91C1
:100F10000F91FF900895EF92FF920F931F93CF933D
:100F2000DF938B01682F11110AC0442329F0E82FA9
:100F3000F0E0E252FC4F6491762F862F75C0212F8E
:100F400030E0E82FF0E0442321F0E252FC4FE4913E
:100F5000F0E046E0049FC0011124CFEFD0E0BE01D5
:100F60000E94182B4BEA4603C001479F900D1124A5
:100F7000800F911D800F911D982F990F890FAE0141
:100F8000421B530B4E9FD0014F9FB00D5E9FB00D83
:100F900011249B2F189FA0011124452F55278E0146
:100FA000041B150B0E9FA0010F9F500D1E9F500D8F
:100FB00011247E01E81AF108E29E8001E39E100DE3
:100FC000F29E100D1124212F3327C21BD30BCE9F6D
:100FD0009001CF9F300DDE9F300D112462307105DE
:100FE000A9F048F46115710569F061307105C9F423
:100FF0008B2F752F0DC06430710581F058F066306D
:10100000710579F47E2F8B2F932F0DC0832F7B2FAB
:101010009E2F09C08E2F7B2F952F05C08E2F732FEB
:1010200002C07E2F852F692FDF91CF911F910F91E5
:10103000FF90EF90089541E00E948B070895089576
:10104000CF93DF93762FE901682F842F0E941B082E
:10105000798368838A83DF91CF91089580914C03CF
:10106000282F269530E02115310519F48170826012
:1010700005C02B32310524F08170846580934C03C8
:10108000089588E090E00C940A2CCF92DF92EF92C2
:10109000FF926B017C010E942E08B701A60188E037
:1010A00090E0FF90EF90DF90CF900C94282CECE430
:1010B000F3E083E0808311828FEF82838383148245
:1010C00060817181828193810C94450880914C03E9
:1010D00080FF02C08695089580E0089590915003A6
:1010E000933018F49F5F90935003882351F06091E0
:1010F0004C0370914D0380914E0390914F030C94DB
:101100004508089581E00C946E089091500399234E
:1011100019F0915090935003882351F060914C0343
:1011200070914D0380914E0390914F030C944508AC
:10113000089581E00C94850870E00C949F106091F4
:10114000080180914C0380FF0AC08091070123E0D1
:10115000829FC00111248F5A9C4F0C949C0880914F
:10116000090190910A01891780F7E82FF0E09F01AB
:10117000220F331FE20FF31FEF5AFC4F1182108230
:1011800012828F5FF0CF90914C0390FF16C0909128
:10119000090120910A01921770F4E92FF0E0DF01B4
:1011A000AA0FBB1FEA0FFB1FEF5AFC4F818360831E
:1011B00042839F5FF0CF0C949F080895CF93DF93F5
:1011C00000D01F92CDB7DEB790914C0390FF0AC0BC
:1011D0009E012F5F3F4F0E9420084B8169818A81C9
:1011E0000E94C3080F900F900F90DF91CF91089548
:1011F000CF93DF93EC01EC81F0E0E752FD4F449197
:10120000ECE4F3E0628181810E94DE088C818F5FD3
:101210008C83DF91CF910895CF93DF93EC01ECE4C1
:10122000F3E0438162818C810E94DE088C818F5FB4
:101230008C83DF91CF9108950F931F93CF93DF930A
:1012400000D01F92CDB7DEB78C018091D101811102
:101250000AC09E012F5F3F4F4FEF6FEF0E942008A3
:101260008A818093D101F8018481813051F028F086
:10127000823061F44091D1010AC08091D10140E0F7
:1012800007C06091D10140E080E003C040E080E011
:1012900060E00E94C308F801848190E0019663E059
:1012A00070E00E942C2B84830F900F900F90DF91A1
:1012B000CF911F910F910895AF92BF92CF92DF927D
:1012C000EF92FF920F931F93CF93DF9300D01F9263
:1012D000CDB7DEB7182FF62E042FE22E90914C03D7
:1012E00090FF6DC0E92FE695AE2FB0E0AE58BE4F2F
:1012F0008C91809335029E7F923061F49E012F5F26
:101300003F4F812F0E9420084B8169818A810E9472
:10131000C30843C0823019F400914F033EC08630A9
:1013200019F410914D0339C08930D9F38931A9F5E9
:10133000E9518E2F8170D82EE695F0E0E752FC4FF0
:10134000A590B490C12CBB2460910B01C61618F572
:101350002C2D30E0A29EC001A39E900DB29E900D58
:10136000112470E00E94182B812FD11002C0860F2B
:1013700001C0861B90910901290F311DA901440F5D
:10138000551F240F351F2F5A3C4F402F6F2D0E94A1
:101390002008C394D9CF0E949F0810934D03F09268
:1013A0004E0300934F03EE2051F060914C03709177
:1013B0004D0380914E0390914F030E9445080F907A
:1013C0000F900F90DF91CF911F910F91FF90EF90B1
:1013D000DF90CF90BF90AF900895ECE4F3E091815F
:1013E000282F4381628188E0890F0C945C0981E099
:1013F0000C94ED09ECE4F3E09181282F43816281A4
:1014000088EF890F0C945C0981E00C94FA09ECE4F4
:10141000F3E0628128E0620F08F46FEF282F438128
:1014200081810C945C0981E00C94070AECE4F3E000
:10143000628128E0621B08F460E0282F43818181EB
:101440000C945C0981E00C94160AECE4F3E043810F
:1014500028E0420F08F44FEF282F628181810C941D
:101460005C0981E00C94250AECE4F3E0438128E078
:10147000421B08F440E0282F628181810C945C09B2
:1014800081E00C94340A20E00C945C09FF920F93E5
:101490001F93CF93DF93EC01F12C0FEF10E06091DD
:1014A0000B01F616F0F4809109012F2D30E0280F82
:1014B000311DC901880F991F280F391F2F5A3C4F22
:1014C00070E0C8010E942C2B962F8C8140914F0315
:1014D00060914E03F99E800D11240E942008F39420
:1014E000DECF0E949F089A818C8190FF02C08F5F9F
:1014F00001C081508C83DF91CF911F910F91FF909C
:101500000895AF92BF92CF92DF92EF92FF920F9326
:101510001F93CF93DF93FC01828180FF02C00FEF06
:1015200001C001E010E042E1A42E80910B011817E8
:1015300008F043C080910901C12ED12CE601C80FEB
:10154000D11DCE01880F991FC80FD91FCF5ADC4F6C
:10155000198218821A8234E0E32EF12CB12C80918A
:10156000D3018B0D83312CF06A2D0E940A2B892F19
:1015700005C087FF03C090910B01890F082E000C56
:10158000990BC816D90691F480914F038E9DA00146
:101590008F9D500D112455954795559547959E0162
:1015A00060914E0380914D030E942008B00EF1E03F
:1015B000EF1AF108A1F61F5FB8CF0E949F08809133
:1015C000D301013031F4811102C080910B018150AF
:1015D00007C090E0019660910B0170E00E942C2BF7
:1015E0008093D301DF91CF911F910F91FF90EF90E6
:1015F000DF90CF90BF90AF900895CF938091090175
:1016000090910A01891770F4E82FF0E09F01220FF2
:10161000331FE20FF31FEF5AFC4F11821082128228
:101620008F5FF0CFC0E060910B01C617C0F5EC2FC3
:10163000F0E070E0CF010E942C2B20910901820F75
:101640002091D201022E000C330B90E0E217F30739
:10165000CCF020910601022E000C330B2E173F0711
:101660008CF09C01220F331F820F931F9C012F5A75
:101670003C4F40914F0360914E0380914D030E9477
:1016800020080BC0FC01EE0FFF1F8E0F9F1FFC01F7
:10169000EF5AFC4F118210821282CF5FC4CF0E949A
:1016A0009F08209105018091D201820F8093D20181
:1016B00090910601920F9093060119165CF4082E82
:1016C000000C990B40910B0150E0415051098417D7
:1016D00095071CF0219520930501CF9108958F92D5
:1016E0009F92AF92BF92CF92DF92EF92FF920F93B1
:1016F0001F93CF93DF938C01FC014481C42FD0E072
:101700009E01DE010E94702B9B01AC010E94862B82
:101710006B017C01E0E2F0E0EC1BFD0BA5E5B0E025
:101720009B01AC010E94862B4B015C019F01DF01F4
:101730000E94682B9B01AC010E94912B9B01AC0184
:101740002C0D3D1D4E1D5F1DC501B4010E94402B97
:10175000C22FD22F2A3228F4F3E02F9F90011124B8
:101760000DC025E530E02C1B3109C901880F991FF8
:10177000280F391F37FF02C02F5F3F4F3595279540
:10178000C22FC095F12C85E5E82EED1A80910B0152
:10179000F816C8F4F1FC02C08E2D01C08D2F909177
:1017A00009012F2D30E0290F311DA901440F551FCC
:1017B000240F351F2F5A3C4F4C2F60914E030E942F
:1017C0002008F394E3CF0E949F08F80184818111DF
:1017D00002C091E003C0803219F49FEF909304019E
:1017E00090910401890FF8018483DF91CF911F91BB
:1017F0000F91FF90EF90DF90CF90BF90AF909F90B0
:101800008F9008950F931F93CF93DF93EC0100E027
:1018100010E080910B01282F30E00217130724F508
:10182000909109019801290F311DA901440F551FFD
:10183000240F351F2F5A3C4F869590E04C81081796
:1018400019071CF4442331F002C0411103C0409138
:101850004F0301C040E060914E0380914D030E9410
:1018600020080F5F1F4FD5CF0E949F088C8190E00A
:101870000196817099278C83DF91CF911F910F91F1
:1018800008958F929F92AF92BF92CF92DF92EF9284
:10189000FF920F931F93CF93DF93FC01B28094804C
:1018A00081E0848300E015E05BE4A52E8824839426
:1018B000EE24EA94F12C7BE4C72ED12C80910B010D
:1018C000081708F08FC0C02FD0E01C9FF0011D9FAB
:1018D000F00D1124EC52FE4F911003C013821282BE
:1018E00067C02381222389F121502383348133234C
:1018F00019F09A2D921B01C0922F80914F031C9FCB
:10190000F0011D9FF00D1124EC52FE4F899FC00184
:101910001124B6010E94182B6283211104C03323C5
:1019200011F01482A38222E02B1508F441C01C9F01
:10193000F0011D9FF00D1124EC52FE4F80914D03DC
:10194000808380914E03818333C00E94E52B8230D7
:10195000914074F582E08B1530F40E94E52BB701BD
:101960000E942C2B02C080914D031C9FF0011D9FF3
:10197000F00D1124EC52FE4F808322E02B1558F419
:101980000E94E52B20914E032695622F70E00E9465
:101990002C2B820F02C080914E031C9FF0011D9FD3
:1019A000F00D1124EC52FE4F81831282A3828482B7
:1019B000809109019E01280F311DC901880F991FCF
:1019C000280F391F2F5A3C4F1C9FF0011D9FF00D0F
:1019D0001124EC52FE4F4281618180810E942008D7
:1019E0000F5F6CCFDF91CF911F910F91FF90EF9020
:1019F000DF90CF90BF90AF909F908F900C949F08F6
:101A0000ECE4F3E080818E7F80836081718182814C
:101A100093810E944508109236022FEF80E792E0F2
:101A2000215080409040E1F700C000000C949F08D6
:101A3000ECE4F3E080818E7F8083109236022FEFFA
:101A400080E792E0215080409040E1F700C0000024
:101A50000C949F0860914C03669570E04BE050E059
:101A60008CE091E00E94F52B892B19F481E08093A2
:101A700036020E94D52090932F0280932E02089563
:101A800090914C0390FF35C09170811102C092601B
:101A900006C08B3210F0946502C0880F982B90938B
:101AA0004C03662351F060914C0370914D0380917B
:101AB0004E0390914F030E94450860914C03669538
:101AC00070E04BE050E08CE091E00E94F52B892B18
:101AD00019F01092360202C00E942A0D81E0809314
:101AE000310240914F0360914E0380914D030C945D
:101AF000430A0895682F90914C03969581E0890FD1
:101B00008B3208F081E00C94400D81E00C947A0D4A
:101B1000682F90914C0396958FEF890F09F48AE214
:101B20000C94400D81E00C94880D61E00C94400D04
:101B3000ECE4F3E080818160808386950C94950DC0
:101B400080914C0380FD0C94000D0C94980D60E086
:101B50000C94400D8091340281112EC00E94BE1E53
:101B6000811104C00E94671F0E9457080E9441080B
:101B700060934C0370934D0380934E0390934F03F7
:101B80006E7F61F40E9457080E94410860934C03E5
:101B900070934D0380934E0390934F030E942E0841
:101BA0001092360280914C0380FF03C086950E94FC
:101BB000A70D81E0809334020895ECE4F3E0808186
:101BC0008160808386950C94A70D1092360208954B
:101BD0000F931F93CF93DF9380913602882309F4EC
:101BE0009CC080913502E0914C03E695E81BE093A0
:101BF0003002823049F4F0E0EB52FD4FE491CE2FF9
:101C0000D0E008EF18E059C0863049F4F0E0EE5219
:101C1000FD4FE491CE2FD0E00CE019E04EC08930AA
:101C200051F4E695F0E0E153FD4FE491CE2FD0E082
:101C300006E41AE042C08F3051F4E695F0E0E45338
:101C4000FD4FE491CE2FD0E001E81AE036C0853197
:101C500049F4F0E0E753FD4FE491CE2FD0E00DEFD3
:101C60001AE02BC08831D9F0833239F4E7ECF2E086
:101C7000C591D4910CE119E020C08432A9F08532DD
:101C8000C1F48E2F63E00E94FE2AE92FF0E0EC53AE
:101C9000FD4FE491CE2FD0E001E41CE00EC0C8E27D
:101CA000D0E00FE61BE009C0C4EFD1E002E01CE089
:101CB00004C0C0EDD7E00FE118E080913102882325
:101CC00089F0109231020E94D5209E012095309516
:101CD000820F931F90932F0280932E021092330253
:101CE0001092320280912E0290912F020E94E120E8
:101CF0008C179D0790F0E0912E02F0912F02CE0FED
:101D0000DF1FD0932F02C0932E028EE292E0F801E3
:101D1000DF91CF911F910F910994DF91CF911F9186
:101D20000F910895882311F0FA0101C0FB01099475
:101D3000CF93DF93C82FD62F0E9466088C1740F0F0
:101D40000E9466088D1720F4DF91CF910C94850DC9
:101D50008C2FDF91CF910C94950D0F931F93CF9300
:101D6000FB01C281CC2309F463C08C010E94071ED1
:101D70008272F801E25CFC45E431F10508F059C0DB
:101D8000EA5AFF4F0C94622B0E94A00D06C042E954
:101D90005DE065E87DE00E94920EC0E04AC045E843
:101DA0005DE062E97DE0F7CF44E05AE067EF79E07B
:101DB000F2CF47EF59E064E07AE0EDCF42E25AE03B
:101DC00063E17AE0E8CF43E15AE062E27AE0E3CF10
:101DD00040E45AE061E37AE0DECF41E35AE060E4B8
:101DE0007AE0D9CF49E958E062E878E0D4CF42E818
:101DF00058E069E978E0CFCF81E017C065E082E084
:101E000010C068E086E00DC06EE089E00AC064E1C1
:101E10008FE007C067E185E104C088E106C062E2A7
:101E200089E10E94980EB9CF83E20E94950DB5CF4B
:101E3000C1E08C2FCF911F910F9108950E94BE1E7B
:101E4000811102C00E94671F0E94EF1E80938703CA
:101E5000282F26952695269530E02430310524F04C
:101E600087708861809387038091870380FF04C017
:101E700086958695869501C080E00C942D10209162
:101E80008703822F869586958695482F50E04330AC
:101E9000510554F48F5F982F990F990F990F822F46
:101EA0008770892B8093870380918703816080935B
:101EB00087030E94F31E80918703869586958695F9
:101EC0000C942D1080918703982F96959695969552
:101ED000A1F0915E990F990F990F8770892B8093CC
:101EE0008703887F91E009F490E08091870390FB5D
:101EF00080F9809387030E94F31E80918703869563
:101F0000869586950C942D108091870380FD13C0D3
:101F1000816080938703813019F489E0809387037F
:101F2000809187030E94F31E809187038695869592
:101F300086950C942D1008958091870380FF08C02A
:101F40008E7F809387030E94F31E80E00C942D10F7
:101F500008958091870380FD0C949C0F0C94840F4E
:101F600090918703892F8695869586958F5F8F71CF
:101F70009770843038F4880F880F880F892B8093EE
:101F8000870302C09093870380918703887F91E045
:101F900009F490E08091870390FB80F98093870398
:101FA0000E94F31E809187038695869586950C94F2
:101FB0002D10843008F083E0909187039770282FCC
:101FC000220F220F220F922B90938703987F21E0FC
:101FD00009F420E09091870320FB90F99093870308
:101FE0000C942D100E94D90F809187030C94F31E3E
:101FF0009C01FB018281882349F12D3BFCE53F07D1
:10200000C9F040F42B3BECE53E0769F02C3B3C4526
:1020100061F008952F3B9CE5390791F070F0203C6A
:102020003C4589F0089583E001C080E00E94F20FF2
:1020300080E008950E94620FFBCF0E943F0FF8CF0F
:102040000E94A90FF5CF0E94B00FF2CF81E0089552
:10205000269A2E9808952E980895CF92DF92EF92A7
:10206000FF92CF93C82F843050F4811109C0809122
:1020700080008F7D809380000E942B1006C0C3E0FB
:10208000809180008062809380002C2F30E0AFEF41
:10209000BFEF0E94702B23E030E040E050E00E9450
:1020A000402BC9012C3764E1360728F469E070E061
:1020B0000E94182B29C0DA01C9018A50974DAF4FF1
:1020C000BF4F6627782F892F9A2F25EF38E241E0FE
:1020D00050E00E94402B69017A01CA01B9010E94B7
:1020E000EE2A9B01AC01C701B6010E94EE2ABB2774
:1020F000A92F982F872F009721E0A207B10511F093
:10210000BC0102C06FEF7FEF70938B0060938A0079
:10211000CF91FF90EF90DF90CF90089508950E94A7
:10212000281082E28093800089E1809381008FEF04
:102130009FEF90938700809386000C941E0F6A9AFD
:102140002EB12B7F3EB134604FB7F894FC01CB0128
:10215000880F991F680F791F6E0F7F1FE617F7070B
:1021600089F0819198E03EB9000000C087FF2EB948
:10217000880F000000C000C000C02EB900C09A95B2
:1021800091F7ECCF4FBF8FE594E00197F1F700C0D6
:1021900000000895AF92BF92CF92DF92EF92FF922C
:1021A0000F931F93CF93DF937C015B01C42FD22F3A
:1021B000FC0182818823F9F0409339020E94D520E6
:1021C000909338028093370280E28C0F883008F0B9
:1021D0006EC0C77081E001C0880FCA95EAF7DF9131
:1021E000CF911F910F91FF90EF90DF90CF90BF9014
:1021F000AF900C94A81580913902481335C0809196
:102200003702909138020E94E1206C01B701C501AC
:102210000E94F11AC816D90638F510E21D0FCD1725
:10222000B9F080E28C0F883040F4C77081E001C0C3
:10223000880FCA95EAF70E94AF15183058F581E06B
:102240009D2F977001C0880F9A95EAF70E94A815F4
:10225000802F0E949515183050F5D77081E001C08D
:10226000880FDA95EAF70AC080E28C0F8830F8F41C
:10227000C77081E001C0880FCA95EAF7DF91CF915E
:102280001F910F91FF90EF90DF90CF90BF90AF9094
:102290000C94AF15802FDF91CF911F910F91FF907C
:1022A000EF90DF90CF90BF90AF900C949515DF9199
:1022B000CF911F910F91FF90EF90DF90CF90BF9043
:1022C000AF9008950F939C01CB01233F4CE5340759
:1022D00031F188F4283DFCE53F07D9F0293D4CE574
:1022E000340779F1273D3C45A9F506E221EE41EEA0
:1022F00067ED7CE52BC0253FFCE53F07E1F0A8F04A
:10230000263F3C4539F507E225EE46EE66EF7CE5D3
:102310001DC007E225EE45EE68ED7CE517C006E23C
:1023200021EE40EE63EF7CE511C007E225EE44EEBE
:1023300064EF7CE50BC006E221EE42EE65EF7CE542
:1023400005C008E221E045EE69ED7CE50E94CA1077
:1023500080E008C0FC018281882319F010923902C4
:1023600001C081E00F910895CF93DF93EC01FB0151
:102370008281882309F41FC1C230FCE5DF0708F41D
:102380001BC1C6319CE5D90738F09E012A5F3C4548
:102390002930310508F010C10E94D11E90938D03A1
:1023A00080938C03C031ECE5DE0709F4C3C008F06C
:1023B00041C0C8308CE5D80709F49AC0F0F4C430A5
:1023C000ECE5DE0709F487C068F4C2308CE5D80775
:1023D00009F477C0C330DC4509F0E3C080918C0379
:1023E000826076C0C630ECE5DE0709F46EC008F006
:1023F0007BC080918C0388606BC0CC308CE5D807A3
:1024000009F485C068F4CA30ECE5DE0709F474C04D
:1024100008F079C00E94381880918C03806858C0F9
:10242000CE308CE5D80709F476C008F07FC08091E3
:102430008C038BC0CB3FECE5DE0709F44FC018F5E9
:10244000C3318CE5D80709F47DC078F4C131ECE5DF
:10245000DE0709F473C0C231DC4509F0A2C00E9456
:10246000381880918C038F7733C0C5318CE5D8073D
:1024700009F472C008F486C0CA3FDC4509F091C077
:1024800080918D033EC0CF3FFCE5DF0709F45FC0BC
:1024900058F4CD3F9CE5D90709F444C008F43FC087
:1024A00080918D0382602DC0C130FDE5DF0709F406
:1024B00075C008F45DC0C230DD4509F072C080E02F
:1024C0006EC080918C03816003C080918C03806119
:1024D00080938C0366C080918C0311C080918D0322
:1024E000826080938D035DC080918C038062F0CF09
:1024F00080918C038064ECCF80918C038860846031
:10250000E7CF8160EECF80918C038E7FE1CF809109
:102510008C038D7FDDCF80918C03877FD9CF809115
:102520008D0318C080918D038D7FDBCF80918C034C
:102530008F7ECECF80918C038F7DCACF80918C030C
:102540008F7BC6CF80918C03877F8B7FC1CF80919B
:102550008D038D7F8E7FC5CF80918C0382FB2227D8
:1025600020F991E0922790FB82F990FB83F9B0CF9C
:1025700080918D03982F909591708E7F892B90FB81
:1025800081F9AFCF0E94381880918C0387FB2227F6
:1025900020F991E0922790FB87F99ACF81E00E9481
:1025A000691F80918C0390918D030E94E21E0E940E
:1025B000381880E001C081E0DF91CF910895CF937A
:1025C000DF9386319C4541F5EB010E94071E982F51
:1025D0008A812091170130911801882379F09A7A25
:1025E00081E009F480E080933A02911102C069E22F
:1025F00001C065E3C9010E9404200AC080913A022B
:10260000811102C069E201C065E3C9010E940F2087
:102610000E94551E80E001C081E0DF91CF910895B6
:102620009093400280933F020895E0913F02F09121
:102630004002309721F00190F081E02D099480E074
:102640000895E0913F02F0914002309799F0209177
:102650002B01222359F020918C0327FF07C0DC01B6
:102660002C9111962C93119725E02C930280F381E5
:10267000E02D09940895E0913F02F09140023097D7
:1026800039F022E0DC012C930480F581E02D0994DF
:10269000089520913D0230913E022817390771F0CC
:1026A00090933E0280933D02E0913F02F091400200
:1026B000309721F00680F781E02D0994089520914C
:1026C0003B0230913C022817390771F090933C028D
:1026D00080933B02E0913F02F0914002309721F05D
:1026E0000084F185E02D0994089585B7806885BF41
:1026F00085B7806885BF089508950C947C130C9469
:102700007D130C947C130C947C130E9475130E940F
:1027100081130C947F1381E008950C948B130E9415
:10272000CC200E9471060E9450210E941E0F0E9420
:10273000AA0D0C9483137F928F929F92AF92BF92B7
:10274000CF92DF92EF92FF920F931F93CF93DF937D
:10275000CDB7DEB72A970FB6F894DEBF0FBECDBF58
:102760000E94C3060E948D13811111C08FEF8983CF
:102770008A831B820E94D5208160782F9D838C8361
:1027800049815A816B818D810E944F144FC042E470
:10279000A42E42E0B42E00E010E0702E802F0E94A4
:1027A0005E066C01F501819091905F018826992663
:1027B0008114910431F40F5F1F4F0830110569F740
:1027C000D5CF8091F90281FD0E94670680E0EE245A
:1027D000E394F12C94012E213F21232B09F18E83C8
:1027E0007F82CE20DF2081E0CD2809F480E0888739
:1027F0000E94D5208160782F9A8789874E815F81DA
:1028000068858A850E944F14000F111FF801EE5B46
:10281000FD4F80819181E826F926F182E08206C091
:102820008F5FEE0CFF1C8D30A9F6C5CF0E94E80D1E
:102830000E948E100E94FF220E9415139091410267
:102840008917C9F00E941513809341022A960FB68A
:10285000F894DEBF0FBECDBFDF91CF911F910F91D6
:10286000FF90EF90DF90CF90BF90AF909F908F90B0
:102870007F900C94EE032A960FB6F894DEBF0FBE3D
:10288000CDBFDF91CF911F910F91FF90EF90DF901F
:10289000CF90BF90AF909F908F907F900895CF93EF
:1028A000DF93CDB7DEB72B970FB6F894DEBF0FBE20
:1028B000CDBF4F83588769877A878B87DE01119652
:1028C00086E0FD0111928A95E9F785E0FE013796D1
:1028D00001900D928A95E1F749815A816B817C8143
:1028E0008D819E810E94F41A2B960FB6F894DEBF5C
:1028F0000FBECDBFDF91CF910895FC018081918102
:102900000E94C81D0895CF93882309F4A4C0C82F3E
:102910008238C1F40E94151381FD9DC069E3809146
:102920001701909118010E9404200E94551E2FEF5C
:1029300081EE94E0215080409040E1F700C000001B
:1029400069E319C0833801F50E94151380FD83C027
:1029500063E580911701909118010E9404200E9464
:10296000551E2FEF81EE94E0215080409040E1F71A
:1029700000C0000063E580911701909118010E944A
:102980000F20CF910C94551E8438C1F40E9415136A
:1029900082FD61C067E480911701909118010E9447
:1029A00004200E94551E2FEF81EE94E021508040BC
:1029B0009040E1F700C0000067E4DDCF8CEF8C0FA2
:1029C000813AD0F46C2F80911701909118010E94E8
:1029D000841F882349F06C2F809117019091180172
:1029E0000E940F200E94551E6C2F8091170190911C
:1029F00018010E940420C5CF80E28C0F883048F473
:102A0000C77081E001C0880FCA95EAF70E940A1ECC
:102A1000B8CFEBE5EC0FE33040F4F0E0E553FE4FC8
:102A2000808190E0CF910C944913E8E5EC0FE731F9
:102A300050F4F0E0EE0FFF1FE356FE4F80819181CE
:102A4000CF910C945F13C03F30F08C2F0E94F42183
:102A5000CF910C94E122CF910895882309F464C0AA
:102A6000823879F40E94151381FF5EC069E380917A
:102A70001701909118010E9404200E94551E69E3DD
:102A800010C08338B1F40E94151380FF4DC063E578
:102A900080911701909118010E9404200E94551EF8
:102AA00063E580911701909118010E940F200C940A
:102AB000551E843879F40E94151382FF35C067E4EF
:102AC00080911701909118010E9404200E94551EC8
:102AD00067E4E7CF9CEF980F913A10F4682FE1CFAD
:102AE00090E2980F983050F4877091E001C0990FF0
:102AF0008A95EAF7892F0E94101ED9CF9BE5980F7F
:102B0000933020F480E090E00C94491398E5980FFE
:102B1000973120F480E090E00C945F13803F20F028
:102B20000E945C220C94E1220895CF93C82F0E944A
:102B30008314C93349F42FEF87EE93E0215080408E
:102B40009040E1F700C000008C2FCF910C942D1520
:102B5000882321F00E940A1E0C94551E0895882394
:102B600021F00E94101E0C94551E0895CF92DF9202
:102B7000EF92FF920F931F93CF93DF937C01062F69
:102B8000C72FFC01158112951F70D281D1110E94AF
:102B9000271E0E94001E882399F0DD2389F08C2FC8
:102BA000807F803421F080E2800F883048F082E01E
:102BB0000E949F1E0E94001E91E0D82ED92601C0BF
:102BC000D12CCC2EC2948FE0C8228C2D90E0FC0139
:102BD000E659FF4F0C94622B8C2F807FCF70882397
:102BE00011F0C295C07FDD2399F0CC2309F48DC18B
:102BF00080E2800F883010F0011104C08C2F0E94F9
:102C00000A1E03C08C2F0E941A1E0E94551E7DC1F1
:102C1000802F0E942D15CC2309F49CC180E2800FE7
:102C2000883010F0011104C08C2F0E94101E03C0C8
:102C30008C2F0E94201E0E94551E8CC18C2F807FDD
:102C4000CF70803211F0C295C07F002319F001309F
:102C5000C9F022C0DD2371F0112341F0113031F4AD
:102C60000E943A1E8C2B0E94421E74C10E943A1E82
:102C70008C2B1DC0112319F0113009F46BC10E9477
:102C80004B1E25C0DD2321F0163008F063C10EC0B5
:102C9000153008F05FC11BC0DD2361F0112331F056
:102CA000F701858180FF31C18F7085838C2F0E9451
:102CB000A81550C1112359F0093309F037C1FFEFAE
:102CC00027EE83E0F15020408040E1F72DC18C2FAA
:102CD0000E94AF153FC18C2F86958695837019F0A1
:102CE000813061F037C1DD2321F0802F9C2F93705C
:102CF00002C080E090E00E94491334C1DD2321F03E
:102D0000802F9C2F937002C080E090E00E945F13A0
:102D100029C1802FDD2319F00E94F42102C00E94F6
:102D20005C220E94E1221EC18C2F837009F045C0F5
:102D3000D11114C1402F429546954770440F440F5E
:102D4000602F6F70862F90E0A0E0B0E0042E04C0EA
:102D5000880F991FAA1FBB1F0A94D2F704FF10C047
:102D60000FE010E020E030E004C0000F111F221F30
:102D7000331F4A95D2F7009510952095309503C0E2
:102D800000E010E09801C695C695C370BC01CD0166
:102D9000602B712B822B932BC23049F058F4C13039
:102DA00019F00E94451CDAC00E94331CD7C00E9453
:102DB000571CD4C00E94311CD1C0DD2319F08C2FC8
:102DC000817001C08695882309F4C8C0402F4295C0
:102DD00046954770440F440F602F6F70862F90E028
:102DE000A0E0B0E0042E04C0880F991FAA1FBB1FEB
:102DF0000A94D2F704FF10C00FE010E020E030E0AA
:102E000004C0000F111F221F331F4A95D2F70095EF
:102E100010952095309503C000E010E09801C6950C
:102E2000C695C370BC01CD01602B712B822B932BF7
:102E3000C23049F058F4C13019F00E940A1D8EC00A
:102E40000E94F81C8BC00E941C1D88C00E946B1C35
:102E500085C0CF70DD2339F08C2F0E94911C802F0C
:102E60000E94A8157BC0802F0E94AF158C2F0E9456
:102E7000B21C74C0023F01F128F4003F41F0013F51
:102E8000A1F03FC0033FF9F0043F39F13AC0DD2320
:102E900041F0153008F05EC08C2F8F710E94D71C56
:102EA00059C0163008F056C0F7CFDD2339F08C2F0B
:102EB0008F710E94911C4EC0DD23C9F38C2F8F713E
:102EC0000E94B21C47C0DD2329F08C2F8F710E9415
:102ED0007C1C40C00E94771C3DC0DD2349F0CF71AF
:102EE0008C2F0E94911C63E08C2F0E948A1E32C09E
:102EF00081E00E949F1E123068F182E00E949F1EB6
:102F000029C0DD2331F0112391F2802F0E94831418
:102F100021C0112399F2093349F49FEFE7EEF3E062
:102F20009150E040F040E1F700C00000802F0E9487
:102F30002D1510C04C2F4F70602FC7010E945004F8
:102F40000E94A21B0FC04C2F4F70602FC7010E9420
:102F5000530408C088EF8C0D843020F40E941513B0
:102F60000E94EE03DD20C9F00E94FC1D80FD15C00B
:102F7000F70112820E94F61D0E94911CC7010E9457
:102F8000EE170E94F61DDF91CF911F910F91FF90D8
:102F9000EF90DF90CF900C94B21CDF91CF911F91F6
:102FA0000F91FF90EF90DF90CF9008950F931F93B4
:102FB000CF93DF93EC01688179818A810E94D31DD0
:102FC0008C010E942E1D0E941F1CB801CE010E9480
:102FD000B615DF91CF911F910F910895CF93DF9395
:102FE000EC01988189812B813C81232B31F08F3F2B
:102FF00031F481E09F3F19F403C081E001C080E01B
:1030000080FD19C0CE010E94070481110CC00E94EE
:10301000001E882381F08A81882369F082E0DF9195
:10302000CF910C949F1ECE010E94D617CE01DF9146
:10303000CF910C94D003DF91CF9108950E94271E69
:103040000E94371E0E94551E0E9412240E94E122F7
:1030500080E090E00E94491380E090E00C945F13C0
:1030600080911701909118010E941A200C941E184B
:103070000E94171E0C943018E92FE295EF704E2F26
:1030800050E0FA013297EE30F105B0F4E658FF4F08
:103090000C94622B803F91F018F4883E68F40EC0C7
:1030A000843F51F40BC0883E48F0813F29F406C0AC
:1030B00093FB882780F9089580E0089581E00895C2
:1030C0000E94C81D0E943C180895CF93DF9300D042
:1030D00000D01F92CDB7DEB70F900F900F900F90DA
:1030E0000F90DF91CF910895CF93DF9300D000D060
:1030F00000D0CDB7DEB726960FB6F894DEBF0FBE70
:10310000CDBFDF91CF9108951F93CF93DF93C091EF
:10311000530216E080915402C81799F0D0E01C9F2A
:10312000F0011D9FF00D1124EB5AFD4F408151819C
:1031300062817381848195810E9474182196C77081
:10314000E9CFDF91CF911F91089540918502509171
:103150008602609187027091880280918902909125
:103160008A020C9474180F931F93CF93DF9380916E
:103170008A0282958F7009F05DC080918702882352
:1031800009F458C080915302109154026091850255
:1031900070918602C0918802D091890291E06F3FC0
:1031A00009F090E0292F06E0811709F443C0209729
:1031B00021F07F3F21F030E003C031E001C0322F29
:1031C00090E030FD34C0089FF001099FF00D1124FC
:1031D000DF01AB5ABD4F11963C911197371327C0B1
:1031E0003C91361324C012963C91129731111FC0A6
:1031F00013964D915C9114974C1B5D0B483C510507
:10320000B0F480918A028F70806180938A02E65ABE
:10321000FD4F80818F708061808385E892E00E94FD
:10322000EE17DF91CF911F910F910C9484180196A6
:103230008770BACFDF91CF911F910F9108959F9220
:10324000AF92BF92CF92DF92EF92FF920F931F93B4
:10325000CF93DF93CDB7DEB761970FB6F894DEBF9B
:103260000FBECDBF8C0185E0F801DE011D960190F7
:103270000D928A95E1F7F80140815181E2809091A9
:103280008502609186022091880230918902211581
:10329000310531F06F3F31F481E09F3F19F403C0F5
:1032A00081E001C080E0F82FF1709F2E80FD46C1C3
:1032B000F801A380B48085E8C82E82E0D82EF09073
:1032C0008702F501E21BF30BFF2009F4DFC08091B8
:1032D0008A02E83CF10508F09BC0282F207F09F006
:1032E00052C0561313C0491311C0FE2CE1100EC07A
:1032F0008F70806180938A020E94A518C6010E9487
:10330000EE1780918A02F801858358C1AB2831F00D
:103310005F3F31F481E04F3F19F403C081E001C009
:1033200080E080FD03C081E08E2502C080E090E057
:10333000F82FF170FF2E80FF1CC080915302209166
:10334000540236E0821709F417C190E0389FF0016B
:10335000399FF00D1124EB5AFD4F6181561306C0C1
:103360006081461303C06281E61203C00196877034
:10337000E9CFFE2CEE2009F421C180918A02816000
:1033800080938A025AC0561306C0491304C0E11044
:1033900002C0F8019FC04D875E878D859E850E9483
:1033A0006018882379F1EE2069F120918A02822F3A
:1033B00082958F7090E0029774F0809185029091D1
:1033C000860298878F831986BB86AA862C87CE01B2
:1033D00007960E94EE1786E0F801A5E8B2E001909A
:1033E0000D928A95E1F70E94B3180E94A5180DC0AE
:1033F000561729F14D875E878D859E850E9460183E
:1034000081112CC0C8010E94EE17FF24F394D6C08E
:10341000282F207F69F77A2DB98AA88A6E2D89898D
:103420000E94651885E892E00E94EE1786E0F6019A
:1034300011928A95E9F70E94A518F12CBFC0491393
:10344000D9CFE110D7CFF8018583C8010E94EE17CC
:1034500086E0F60111928A95E9F7B0C0EE2091F26C
:1034600020918A02822F82958F7090E002970CF44F
:10347000B2CF80918502909186029A8389831B82C4
:10348000BD82AC822E83CE010196A3CFE83CF1052C
:1034900008F047C0FE2CEE2009F4B4CF561330C01C
:1034A00049132EC020918A0220FD21C0822F8295CF
:1034B0008F70482F50E041155105C9F0F801258360
:1034C0004F30510541F08F5F982F9295907F822F5A
:1034D0008F70892B8583C8010E94EE1786E0F80162
:1034E000A5E8B2E001900D928A95E1F742C086E02E
:1034F000F801A5E8B2E001900D928A95E1F75EC06F
:103500004D875E878D859E850E946018811163CFEF
:1035100080918A02816080938A02C8010E94EE171E
:103520004DC07A2DB98AA88A6E2D89890E946518A6
:1035300086E0F60111928A95E9F71BC0EE2009F4A6
:1035400061CF4D875E878D859E850E946018F82E1D
:10355000882309F457CF86E0F801A5E8B2E001908E
:103560000D928A95E1F785E892E00E947D140E9411
:10357000B3180E94A51822C04D875E878D859E8551
:103580000E94C81D292F22952F70223028F49F7089
:1035900039F0811105C00BC0243028F49F7049F424
:1035A000805E883020F0C8010E94EE179F2CF92C15
:1035B00005C0F8019581907F99F7F9CF8F2D61961D
:1035C0000FB6F894DEBF0FBECDBFDF91CF911F9134
:1035D0000F91FF90EF90DF90CF90BF90AF909F90B2
:1035E000089588EC90E008951F93CF93DF93CDB7B3
:1035F000DEB72C970FB6F894DEBF0FBECDBF4F835A
:10360000588769877A878B879C87CE0107960E94A7
:103610001F198823D1F09F8188852A853B85232B1C
:1036200031F08F3F31F481E09F3F19F403C081E016
:1036300001C080E080FD47C04F81588569857A854B
:103640008B859C850E9474183EC086E0FE013796EB
:10365000DE01119601900D928A95E1F7FF81E885D0
:103660006A857B856115710531F0EF3F31F481E0AA
:10367000FF3F19F403C081E001C080E080FD23C05A
:103680002091540230E0C90101968770992740913A
:10369000530250E084179507F1F1F983EA837D83A3
:1036A0006C8396E0929FD001939FB00D1124AB5A8A
:1036B000BD4FFE01319601900D929A95E1F78093EE
:1036C00054020E94841816E0809153029091540293
:1036D000891771F1189FC00111248B5A9D4F0E94C8
:1036E0001F19882329F1E09153021E9FF001112434
:1036F000EB5AFD4F408151816281738184819581B4
:103700000E9474188091530290E001968770992767
:1037100080935302D9CF0E9438181092540210920D
:103720005302E5E8F2E086E0DF011D928A95E9F7B1
:103730002C960FB6F894DEBF0FBECDBFDF91CF91B0
:103740001F910895EF92FF920F931F93CF93DF93F2
:103750008C01892B09F46CC0F12CEE24E394E80170
:103760002196F8018491843740F4843008F051C0E8
:10377000813081F0823019F15BC0853709F444C093
:10378000A8F19CE7980F903708F052C08F770E94FD
:103790002D1541C00E5F1F4FFE01849190E2980FDE
:1037A000983050F48770FE2D01C0FF0F8A95EAF71C
:1037B0008F2F0E942A1E14C00E9483142DC00E5FFA
:1037C0001F4FFE01849190E2980F983060F487704B
:1037D000FE2D01C0FF0F8A95EAF78F2F0E94301E41
:1037E0000E94551E19C00E942D1516C00E5F1F4F56
:1037F000FE01C491CC2381F08FE99FE00197F1F79E
:1038000000C00000C150F6CF0E5F1F4FFE01F490C4
:1038100003C00E9483148E018F2D882309F49FCF4B
:10382000EFE9FFE03197F1F700C000008150F5CFDC
:10383000DF91CF911F910F91FF90EF900895089520
:1038400008950C94201C0C94211C0E94231C60934E
:10385000D0027093D1028093D2029093D3020C9441
:103860001E180C94251C0F931F930091D0021091E9
:10387000D1022091D2023091D302602B712B822B86
:10388000932B1F910F910C94251C0F931F93009164
:10389000D0021091D1022091D2023091D302602344
:1038A0007123822393231F910F910C94251C0F9356
:1038B0001F930091D0021091D1022091D202309139
:1038C000D30260277127822793271F910F910C94B1
:1038D000251C0C94201C0E94691C6093CC027093E0
:1038E000CD028093CE029093CF020C941E1860E01C
:1038F00070E0CB010C946B1C0F931F9341E050E0E0
:1039000060E070E08A019B0104C0000F111F221FBC
:10391000331F8A95D2F7C901B8011F910F910C94FA
:103920006B1C0F931F9341E050E060E070E004C017
:10393000440F551F661F771F8A95D2F78091CC02DE
:103940009091CD02A091CE02B091CF028A019B014D
:10395000082B192B2A2B3B2BC901B8011F910F9162
:103960000C946B1C0F931F9341E050E060E070E0FB
:1039700004C0440F551F661F771F8A95D2F74095E4
:103980005095609570958091CC029091CD02A09158
:10399000CE02B091CF028A019B01082319232A236A
:1039A0003B23C901B8011F910F910C946B1C0F931D
:1039B0001F9341E050E060E070E004C0440F551FE9
:1039C000661F771F8A95D2F78091CC029091CD0225
:1039D000A091CE02B091CF028A019B01082719273E
:1039E0002A273B27C901B8011F910F910C946B1C2A
:1039F0000F931F930091CC021091CD022091CE0223
:103A00003091CF02602B712B822B932B1F910F9142
:103A10000C946B1C0F931F930091CC021091CD025C
:103A20002091CE023091CF02602371238223932311
:103A30001F910F910C946B1C0F931F930091CC025C
:103A40001091CD022091CE023091CF0260277127D4
:103A5000822793271F910F910C946B1C08952DE0E2
:103A6000929F800D1124E82FE695E695E6958770E4
:103A700051E001C0550F8A95EAF785E0E89FF00113
:103A80001124E557FD4F20E030E070E04081CB018C
:103A9000022E02C0969587950A94E2F7817081956F
:103AA00084278523842781932F5F3F4F253031055D
:103AB00069F708952DE0929F800D1124682F669577
:103AC00066956695982F977085E0689FB0011124E0
:103AD00040E050E080E0FB01E40FF51FE557FD4FAB
:103AE000208130E0092E02C0369527950A94E2F72E
:103AF00021703327042E01C0220F0A94EAF7822B8B
:103B00004F5F5F4F4530510531F70895BF92CF9217
:103B1000DF92EF92FF920F931F93CF93DF938C016D
:103B2000C090CC02D090CD02E090CE02F090CF02B7
:103B30008091D0029091D102A091D202B091D30293
:103B4000C82AD92AEA2AFB2ACFE1D0E0D701C60148
:103B50000C2E04C0B695A795979587950A94D2F731
:103B600080FD04C0219790F7B12C07C0BC2EB8018E
:103B70008C2F0E946F040197A9F38B2DDF91CF91B9
:103B80001F910F91FF90EF90DF90CF90BF9008951D
:103B9000CF93DF93EC010E94861DBE010E946F044B
:103BA000DF91CF9108951F93CF93DF93EB01909115
:103BB0005202992321F0CB010E94C81D13C0882313
:103BC00049F0CB010E94861D182F682FCE010E945C
:103BD0002F1D04C0CB010E945A1D182FBE01812F3A
:103BE0000E946F04DF91CF911F9108958091D402BC
:103BF00085958595859508958091D402877008955F
:103C00009091D402977081E009F480E0089580914A
:103C1000F80208959091F802892B8093F802089594
:103C200080959091F80289238093F802089510926C
:103C3000F80208959091F702892B8093F702089576
:103C400080959091F70289238093F702089510924E
:103C5000F70208959091F602892B8093F602089559
:103C600080959091F60289238093F6020895109230
:103C7000F60208958091D502089508950C943D1E92
:103C80000C943E1E9091D502981721F08093D50296
:103C90000C94401E08958091D502882329F010923B
:103CA000D50280E00C94401E0895E0911701F09138
:103CB00018018091F8028083E0911701F0911801BA
:103CC00090818091F702892B8083E0911701F09118
:103CD000180190818091F602892B80838091D50212
:103CE000882381F0E0911701F09118019081892BD0
:103CF000808380911701909118010E946E1F81119D
:103D00000E944B1E80911701909118010C94211371
:103D10000C943D1E98E0899F90011124262B20933E
:103D2000D4020E94911C8091D40285958595859539
:103D30000C94881E1092D40280E00C94881E20916E
:103D4000D402809582238093D402982F977079F4BF
:103D500030E0482F082E000C550B2417350739F09A
:103D60008595859585950E94B21C0C949A1E0895A0
:103D70006FEF7FEF80E090E00C94342C80E090E0D7
:103D80000E94102C21E08C3E9E4F09F020E0822FF3
:103D9000089582E090E00C94022C83E090E00C9473
:103DA000022CCF9384E090E00E94022CC82F81E285
:103DB00090E00E94022C2C2F30E0A901582BCA0160
:103DC000CF910895CF93C92F682F84E090E00E948F
:103DD000162C6C2F81E290E0CF910C94162C86E08B
:103DE00090E00C94022C682F86E090E00C94162C46
:103DF000AB01BC018FE090E00C94282CAB01BC011E
:103E000083E190E00C94282C60E070E0CB010C94EE
:103E1000FE1E60E070E0CB010E94F81E0C94041FAF
:103E20006CEE7EEF80E090E00E94342C60E082E057
:103E300090E00E94162C60E083E090E00E94162C37
:103E40001092D0021092D1021092D2021092D3029C
:103E500060E084E090E00E94162C60E081E290E057
:103E60000E94162C60E085E090E00E94162C60E035
:103E700086E090E00E94162C6FEF87E090E00E94B1
:103E8000162C40E050E0BA0188E090E00E94282C17
:103E900060E08DE090E00E94162C40E050E0BA0116
:103EA00088E190E00E94282C60E087E190E00E9489
:103EB000162C40E050E0BA018CE190E00E94282CE2
:103EC00060E080E290E00E94162C0C94091F0C9494
:103ED000101F682F8EE090E00C94162CFC01329697
:103EE00080912B01882331F080918C0387FF02C0E1
:103EF0009EE101C096E080E0915028F021912223BC
:103F0000D9F38F5FF9CF0895662351F120912B01EA
:103F10002223E9F020918C0327FF19C0462F4695F4
:103F2000469546954E31E0F4677021E030E002C0DE
:103F3000220F331F6A95E2F7FC01E40FF11D828125
:103F400090E02823392381E0232B69F409C0FC0188
:103F5000329608962191621729F0E817F907D1F7F0
:103F600080E0089581E008959C01FC0132969FEF66
:103F700080E04191461789F09F3F19F4411101C03B
:103F8000982F8F5F8630A9F79F3F39F0F901E90F2D
:103F9000F11D97FDFA956283089508959C012A5FAB
:103FA0003F4FFC014281461301C0128201968217E5
:103FB0009307B9F70895262F2695269526952E3135
:103FC00068F4FC01E20FF11D677021E030E001C0F0
:103FD000220F6A95EAF78281282B22830895262FE3
:103FE0002695269526952E3170F4FC01E20FF11DE1
:103FF000677021E030E001C0220F6A95EAF7209552
:10400000828128232283089520912B01222329F0E5
:1040100020918C0327FD0C94DB1F0C94B41F20917E
:104020002B01222329F020918C0327FD0C94EF1FF4
:104030000C94CE1F20912B01FC013296222331F0EB
:1040400080918C0387FF02C08EE101C086E0DF0112
:104050001D928A95E9F7089508950C942C200C94EC
:104060002C20CF930E942F200E94C3060E942D2057
:10407000C0E08C2F0E945E06892B29F4CF5FC830E8
:10408000C1F780E001C081E0CF9108950C942C200D
:104090000C9446200E94482080919203843009F4B9
:1040A0003CC01092FA0220E488E190E00FB6F89448
:1040B000A895809360000FBE2093600080E00E946E
:1040C0002D1080E00E94EE030E94E50D8091FB021E
:1040D00081110AC081E08093FB0280914C038170C2
:1040E0008093FC020E94180D0E94482083B7817FB4
:1040F000846083BF83B7816083BF7894889583B7DA
:104100008E7F83BF0FB6F894A89580916000886178
:1041100080936000109260000FBE08950C942C20D4
:104120000E9438180E941E0F0E9415130E94EE0371
:104130001092FB028091FC0281110E94DD0D0E9411
:104140002A0D0C948E201F920F920FB60F921124FD
:104150008F939F93AF93BF938091FA02811113C005
:104160008091880390918903A0918A03B0918B0379
:104170004196A11DB11D8093880390938903A0935C
:104180008A03B0938B03BF91AF919F918F910F9052
:104190000FBE0F901F90189582E084BD93E095BDEF
:1041A0009AEF97BD80936E0008952FB7F894809191
:1041B000880390918903A0918A03B0918B032FBF4C
:1041C00008959C014FB7F8948091880390918903DA
:1041D000A0918A03B0918B034FBF821B930B08956C
:1041E00078941F920F920FB60F9211248F939F9382
:1041F000AF93BF938091880390918903A0918A0324
:10420000B0918B030196A11DB11D809388039093FB
:104210008903A0938A03B0938B03BF91AF919F91C1
:104220008F910F900FBE0F901F90189581E0809393
:10423000E00080E28093D8001092C9008FE19EE4F4
:104240000197F1F700C0000087E090EBDC0180935C
:104250009B0390939C03A0939D03B0939E039CE0CB
:1042600088E10FB6F894A895809360000FBE9093F4
:104270006000FFCF0C94B81E0E94C3068FE39CE938
:104280000197F1F700C000000E94C30680E00E9481
:104290005E0680FF04C00E943A210C941621089506
:1042A0000E94BE1E811102C00E94671F0E94C91E8B
:1042B0008093F9020E94D11E90938D0380938C030A
:1042C0000E94CD1E682F70E080E090E00E94311CBB
:1042D0006091CC027091CD028091CE029091CF027C
:1042E0000C94691C8091030380FF0BC060911E0138
:1042F00085E0689FB0011124759567957595679560
:104300002BC081FF09C060911E0185E0689FB0014C
:1043100011247595679520C082FF07C060911E012A
:1043200085E0689FB001112417C090910203992382
:10433000D1F060911D01961788F720911E0185E04C
:10434000289F90011124929FA001939F500D11244A
:1043500070E0CA010E942C2B6038710540F4611591
:10436000710519F406C065E070E0862F08958FE7A7
:10437000089581E008958091030380FF08C0609153
:104380001A0170E0759567957595679521C081FF55
:1043900006C060911A0170E07595679519C082FF9B
:1043A00004C060911A0170E010C09091010399233C
:1043B00099F0609119019617A0F780911A01899FD1
:1043C000C001112470E00E942C2B6038710540F46C
:1043D0006115710519F406C061E070E0862F08953B
:1043E0008FE7089581E00895803F21F40E947221B3
:1043F000819504C0813F29F40E94722180930703B4
:104400000895823F21F40E947221819504C0833F68
:1044100029F40E947221809306030895893F19F4BC
:104420000E94BB2105C08A3F31F40E94BB218195C7
:104430008093080308958B3F21F40E94BB2181954E
:1044400004C08C3F29F40E94BB2180930903089586
:10445000843F21F480910503816017C0853F21F4DA
:1044600080910503826011C0863F21F4809105038D
:1044700084600BC0873F21F480910503886005C0EC
:10448000883F31F48091050380618093050308958E
:104490008D3F21F48091030381600BC08E3F21F496
:1044A00080910303826005C08F3F29F4809103034C
:1044B0008460809303030895803F39F4809107035B
:1044C00087FF6AC01092070367C0813F29F480917B
:1044D00007031816BCF360C090910603823F29F4CD
:1044E00097FF5AC01092060357C0833F19F419165C
:1044F000CCF352C090910803893F31F419160CF0A7
:104500004BC01092080348C08A3F19F497FF44C07B
:10451000F8CF8B3F39F48091090387FF3DC010929B
:1045200009033AC08C3F29F4809109031816BCF3A3
:1045300033C0843F21F4809105038E7F17C0853FEF
:1045400021F4809105038D7F11C0863F21F4809175
:1045500005038B7F0BC0873F21F480910503877F84
:1045600005C0883F31F4809105038F7E8093050359
:1045700013C08D3F21F4809103038E7F0BC08E3FCB
:1045800021F4809103038D7F05C08F3F29F4809132
:1045900003038B7F8093030380910603811106C080
:1045A00080910703811102C01092020380910803D9
:1045B000811106C080910903811102C0109201038C
:1045C00008950E94D52020910603211104C0209156
:1045D0000703222321F0909300038093FF02209190
:1045E0000803211104C020910903222321F0909394
:1045F000FE028093FD0284E093E00C943B13EF9263
:10460000FF920F931F93CF93DF9300D000D000D081
:10461000CDB7DEB786E0E4E0F3E0DE01119601906D
:104620000D928A95E1F7E0900603F0900703009160
:1046300008031091090310920603109207031092C9
:10464000080310920903E11003C0FF2009F45DC0C4
:104650008091FF02909100030E94E120AC019091B3
:104660000203992339F020911F0130E02417350708
:1046700058F04BC0209120018AE0289F900111241E
:104680002417350718F041C09F3F19F09F5F9093A2
:104690000203EE2061F00E9472211E1414F09FEFBD
:1046A00001C091E0989F902D112490930603FF2064
:1046B00061F00E9472211F1414F09FEF01C091E07D
:1046C000989F902D11249093070330910603332374
:1046D000E1F0209107032223C1F045EB3403C00130
:1046E0001124992319F09093060303C081E080936D
:1046F000060335EB2303C0011124992319F090938D
:10470000070303C081E080930703011103C0112355
:1047100009F45DC08091FD029091FE020E94E120AB
:10472000AC0190910103992339F020911B0130E0F5
:104730002417350758F04BC020911C018AE0289FB0
:10474000900111242417350718F041C09F3F19F03C
:104750009F5F90930103002361F00E94BB2110161C
:1047600014F09FEF01C091E0989F902D1124909339
:104770000803112361F00E94BB21111614F09FEF72
:1047800001C091E0989F902D1124909309033091DE
:1047900008033323E1F0209109032223C1F045EB04
:1047A0003403C0011124992319F09093080303C026
:1047B00081E08093080335EB2303C0011124992382
:1047C00019F09093090303C081E08093090380915D
:1047D000060381110BC080910703811107C08091EE
:1047E0000803811103C08091090381110E94E12215
:1047F000EB82FC820D831E8386E0FE013196A4E0ED
:10480000B3E001900D928A95E1F726960FB6F894E1
:10481000DEBF0FBECDBFDF91CF911F910F91FF90F3
:10482000EF900895E4E0F3E086E0DF011D928A95C1
:10483000E9F7109202031092010310920303089506
:1048400080912A030895CF93DF9300D01F92CDB7B4
:10485000DEB790919203943019F589837B836A8344
:1048600082E08093E9008FEF9091E800815095FD00
:1048700006C095ED9A95F1F700008111F5CF809172
:10488000E80085FF0DC040E050E063E070E0CE013D
:1048900001960E9450268091E8008E778093E80070
:1048A0000F900F900F90DF91CF910895BC0184E09D
:1048B0000C942324BC0183E00C94232422E0209355
:1048C000E9002FEF3091E800215035FD06C035EDAD
:1048D0003A95F1F700002111F5CF2091E80025FF6E
:1048E0000BC040E050E066E070E00E9450268091EE
:1048F000E8008E778093E8000895CF93DF932091AE
:104900002B01222339F020918C0327FF03C060E2A2
:1049100022E002C068E021E02093E9002FEF30910F
:10492000E800215035FD06C035ED3A95F1F700005D
:104930002111F5CF2091E80025FF1DC0EC018091E9
:104940002B01811105C040E050E068E070E003C039
:1049500070E040E050E0CE010E9450268091E800D7
:104960008E778093E80080E2FE01AAE0B3E0019038
:104970000D928A95E1F7DF91CF910895809191038F
:10498000811109C00E94E1270E943E288091E20027
:1049900084608093E2000895109291030895089531
:1049A00008950C94902042E061EC81E00E945A2727
:1049B00042E261EC82E00C945A27809194038330A8
:1049C00009F460C030F4813071F0823009F499C08C
:1049D00008958A3009F485C08B3009F46BC08930A2
:1049E00009F0A7C020C080919303813A09F0A1C0CB
:1049F0008091E800877F8093E800809197039091F1
:104A00009803892B21F460E28AE093E003C060E020
:104A100080E090E070E00E949B268091E8008B7718
:104A20008093E800089580919303813209F081C05A
:104A30008091970390919803029708F07AC0809133
:104A4000E800877F8093E8008091E80082FD05C040
:104A5000809192038111F8CF6CC02091F300809176
:104A6000F20090E0922B029729F48091F1008B7F65
:104A7000813021F48091F10080932A038091E80035
:104A80008B7753C080919303813A09F052C0809193
:104A9000970390919803892B09F04BC08091E8000F
:104AA000877F8093E8008091E80080FFFCCF8091B1
:104AB0002B0136C0809193038132D9F58091970301
:104AC00090919803892BA9F58091E800877F8093C6
:104AD000E8000E948F278091950380932B010C940E
:104AE000381880919303813221F58091E800877F07
:104AF0008093E8000E948F278091960380932B0378
:104B0000089580919303813AA1F48091E800877F12
:104B10008093E8008091E80080FFFCCF80912B0318
:104B20008093F1008091E8008E778093E8000C94E8
:104B30008F27089584B7877F84BF0FB6F894A89510
:104B400080916000886180936000109260000FBEC9
:104B500090E080E80FB6F894809361009093610034
:104B60000FBE0E9485130E94E1270E943E2880917B
:104B7000E20084608093E20078940E94D32A0E942D
:104B80008F1381E291E00E9410138091920385308F
:104B900069F40E944A20809190038823B1F30E9417
:104BA0003120882391F30E943A26EFCF0E949B1375
:104BB000ECCF0C94DB25292F332723303105C9F0A6
:104BC00060F42130310581F02230310509F04AC00E
:104BD0008BE390E02AE035E049C02132310511F144
:104BE0002232310579F13EC082E190E025E435E0E2
:104BF0003DC099278130910561F040F082309105E8
:104C000059F0039779F5EEEDF4E008C0E6E0F5E041
:104C100005C0E4EFF4E002C0E4EEF4E0849190E03B
:104C20009F0124C06115710541F061307105D1F417
:104C300089E090E025E335E019C089E090E02CE1BF
:104C400035E014C06115710541F06130710551F412
:104C50008CEB90E027E535E009C080E490E023E1AB
:104C600036E004C080E090E020E030E0FA013183DB
:104C70002083089580E189BD82E189BD09B400FEE9
:104C8000FDCF8091D8008F7D8093D8008091E00087
:104C900082608093E0008091E00081FDFCCF089568
:104CA000CF92DF92EF92FF920F931F93CF93DF93F8
:104CB000EC018B017A010E94AE27811133C0E1140F
:104CC000F10439F0F70180819181081B190BC80F9D
:104CD000D91FC12CD12C0115110519F18091E800C3
:104CE00085FD16C08091E8008E778093E800E1147E
:104CF000F10449F0F70180819181C80ED91ED1825B
:104D0000C08285E00FC00E94AE27882321F30AC02D
:104D100089918093F10001501109FFEFCF1ADF0A4A
:104D2000DACF80E0DF91CF911F910F91FF90EF904C
:104D3000DF90CF9008952091990330919A03261720
:104D4000370748F06115710539F42091E8002E7796
:104D50002093E80001C0B901FC0120E06115710554
:104D600079F1809192038823F1F18530F1F18091FE
:104D7000E80083FD3CC08091E80082FD2EC0809158
:104D8000E80080FFEBCF2091F3008091F20090E0EB
:104D9000922B6115710551F08830910538F42191FD
:104DA0002093F100615071090196F3CF21E008973B
:104DB00009F020E08091E8008E778093E800CECF64
:104DC0002111CFCF0AC080919203882361F08530F2
:104DD00061F08091E80083FD0AC08091E80082FFC5
:104DE000F2CF80E0089582E0089583E0089581E0A5
:104DF00008952091990330919A032617370748F0B8
:104E00006115710539F42091E8002E772093E800B0
:104E100001C0B901FC0120E06115710591F180919B
:104E20009203882309F440C0853009F43FC0809183
:104E3000E80083FD3DC08091E80082FD2FC0809195
:104E4000E80080FFE9CF2091F3008091F20090E02C
:104E5000922B6115710559F08830910540F4249129
:104E60002093F1003196615071090196F2CF21E053
:104E7000089709F020E08091E8008E778093E800A1
:104E8000CBCF2111CCCF0AC080919203882361F04F
:104E9000853061F08091E80083FD0AC08091E800D0
:104EA00082FFF2CF80E0089582E0089583E00895C4
:104EB00081E00895982F973068F59093E90098174E
:104EC00039F07091EC002091ED005091F00003C09A
:104ED000242F762F50E021FD02C09F5FECCF309150
:104EE000EB003E7F3093EB003091ED003D7F30933F
:104EF000ED003091EB0031603093EB007093EC00EB
:104F00002093ED005093F0002091EE0027FDE5CFB7
:104F100080E008958F708093E90081E0089580918A
:104F2000930387FF11C08091E80082FD05C0809146
:104F300092038111F8CF11C08091E8008B770BC0EC
:104F400080919203882349F08091E80080FFF8CF98
:104F50008091E8008E778093E80008952091E40026
:104F60003091E50095E64091EC00842F817040FF80
:104F700023C08091E80080FD1DC0809192038823AA
:104F800099F0853099F08091EB0085FD11C040913A
:104F9000E4005091E5002417350729F3915011F0F2
:104FA0009A01E1CF84E0089582E0089583E00895B6
:104FB00081E0089580E008954091E80042FFDDCF50
:104FC00008950E944F280E945728E0EEF0E080816B
:104FD00081608083E8EDF0E080818F77808319BC69
:104FE000A7EDB0E08C918E7F8C9380818F7E808343
:104FF0001092910308950F931F93CF93DF930E9414
:105000004F280E945728C8EDD0E088818F77888389
:1050100088818068888388818F7D888319BC1092FD
:10502000920310928E031092900310928F0300EE61
:1050300010E0F80180818B7F808388818160888384
:1050400042E060E080E00E945A27E1EEF0E08081DB
:105050008E7F8083E2EEF0E08081816080838081BA
:1050600088608083F80180818E7F80838881806161
:105070008883DF91CF911F910F910895E8EDF0E0C3
:1050800080818F7E8083E7EDF0E080818160808386
:1050900084E082BF81E0809391030C94FB27E8EDCC
:1050A000F0E080818E7F80831092E200089510925C
:1050B000DA001092E10008951F920F920FB60F923E
:1050C00011242F933F934F935F936F937F938F930D
:1050D0009F93AF93BF93EF93FF938091E10082FF83
:1050E0000BC08091E20082FF07C08091E1008B7FBE
:1050F0008093E1000E94D22A8091DA0080FF1FC0D5
:105100008091D80080FF1BC08091DA008E7F809351
:10511000DA008091D90080FF0DC080E189BD82E175
:1051200089BD09B400FEFDCF81E0809392030E9407
:10513000BE2405C019BC109292030E94CC24809119
:10514000E10080FF19C08091E20080FF15C08091CE
:10515000E2008E7F8093E2008091E2008061809384
:10516000E2008091D80080628093D80019BC85E06D
:10517000809392030E94D0248091E10084FF30C08C
:105180008091E20084FF2CC080E189BD82E189BD6D
:1051900009B400FEFDCF8091D8008F7D8093D800A8
:1051A0008091E1008F7E8093E1008091E2008F7E0C
:1051B0008093E2008091E20081608093E200809120
:1051C0008E03882311F084E007C08091E30087FDFF
:1051D00002C081E001C083E0809392030E94D12449
:1051E0008091E10083FF29C08091E20083FF25C008
:1051F0008091E100877F8093E10082E080939203B9
:1052000010928E038091E1008E7F8093E100809167
:10521000E2008E7F8093E2008091E20080618093C3
:10522000E20042E060E080E00E945A278091F000B6
:1052300088608093F0000E94CF24FF91EF91BF918E
:10524000AF919F918F917F916F915F914F913F911E
:105250002F910F900FBE0F901F9018951F920F92D5
:105260000FB60F9211242F933F934F935F936F9339
:105270007F938F939F93AF93BF93CF93DF93EF93DE
:10528000FF93C091E900CF708091EC00D82FD170CE
:1052900080FDD0E81092E9008091F000877F809334
:1052A000F00078940E9472291092E9008091F00039
:1052B00088608093F000CD2BCF70C093E900FF9100
:1052C000EF91DF91CF91BF91AF919F918F917F919E
:1052D0006F915F914F913F912F910F900FBE0F9063
:1052E0001F9018951F93CF93DF93CDB7DEB7AA9782
:1052F0000FB6F894DEBF0FBECDBFE3E9F3E08091B7
:10530000F100819323E0EB39F207C9F70E94DD2415
:105310008091E80083FF2EC18091930390919403C4
:10532000492F50E04A30510508F024C1FA01E857EE
:10533000FF4F0C94622B803821F0823809F01AC19B
:1053400008C080918F0390919003992389F0826027
:105350000FC0809197038F70873008F00BC1809346
:10536000E9008091EB0085FB882780F91092E90025
:105370009091E800977F9093E8008093F10010925D
:10538000F100D1C0282F2D7F09F0F4C0882319F037
:10539000823061F0EFC080919503813009F0EAC05E
:1053A000933009F080E0809390032EC080919503A4
:1053B00081112AC0809197038F702FEF280F26301C
:1053C00008F0D8C08093E9002091EB0020FF1CC0BA
:1053D000933021F48091EB00806214C09091EB0037
:1053E00090619093EB0021E030E0A90102C0440FEE
:1053F000551F8A95E2F74093EA001092EA008091E7
:10540000EB0088608093EB001092E9008091E80047
:10541000877F8093E8000E948F27ACC08111AAC0CB
:10542000109195031F778091E3008078812B809302
:10543000E3008091E800877F8093E8000E948F2737
:105440008091E80080FFFCCF8091E300806880932A
:10545000E300111102C082E001C083E08093920357
:1054600089C08058823008F085C080919503909162
:1054700096038C3D53E0950779F583E08A838AE2B1
:1054800089834FB7F894DE01139620E03EE051E2A5
:10549000E32FF0E050935700E49120FF03C0E29522
:1054A000EF703F5FEF708E2F90E0EA3010F0C796FC
:1054B00001C0C0968D939D932F5F243149F74FBF54
:1054C0008091E800877F8093E8006AE270E0CE0177
:1054D00001960E949B2616C06091970370919803D5
:1054E000AE014F5F5F4F0E94D925BC01892B09F4A3
:1054F00041C09091E800977F9093E80089819A815C
:105500000E94F9268091E8008B778093E80032C0F2
:10551000803881F58091E800877F8093E800809152
:105520008E038093F1008091E8008E7772CF811115
:1055300021C0809195039091960399270297D4F406
:105540008091E800877F8093E800809195038093A5
:105550008E030E948F2780918E03811106C0809157
:10556000E30087FD02C081E001C084E080939203E4
:105570000E94D3248091E80083FF0AC08091E80054
:10558000877F8093E8008091EB0080628093EB003E
:10559000AA960FB6F894DEBF0FBECDBFDF91CF91B4
:1055A0001F9108950895CF93809192038823A1F0CD
:1055B000C091E900CF709091EC00892F817090FD2F
:1055C00080E8C82B1092E9008091E80083FD0E94DA
:1055D0007229CF70C093E900CF910895DB018F93BA
:1055E0009F930E94862BBF91AF91A29F800D911D2A
:1055F000A39F900DB29F900D11240895991B79E0FF
:1056000004C0991F961708F0961B881F7A95C9F752
:105610008095089587FB082E062687FD819567FDF6
:1056200061950E94FE2A0EF4919507FC81950895DC
:10563000AA1BBB1B51E107C0AA1FBB1FA617B707B8
:1056400010F0A61BB70B881F991F5A95A9F78095D4
:105650009095BC01CD01089597FB072E16F4009498
:1056600007D077FD09D00E94182B07FC05D03EF427
:10567000909581959F4F0895709561957F4F0895FE
:10568000A1E21A2EAA1BBB1BFD010DC0AA1FBB1F46
:10569000EE1FFF1FA217B307E407F50720F0A21BB8
:1056A000B30BE40BF50B661F771F881F991F1A9425
:1056B00069F760957095809590959B01AC01BD014F
:1056C000CF010895EE0FFF1F0590F491E02D09948E
:1056D0000E94702B332312F48A1B9B0B0C94812B9A
:1056E000A29FB001B39FC001A39F700D811D112423
:1056F000911DB29F700D811D1124911D08950E946E
:10570000702BB7FF0895821B930B08950E94702B96
:10571000A59F900DB49F900DA49F800D911D112405
:105720000895B7FF0C94862B0E94862B821B930B47
:1057300008958F929F92AF92BF92CF92DF92EF9295
:10574000FF92CF93DF93EC01688179818A819B81FD
:10575000611571058105910521F464E279ED8BE510
:1057600097E02DE133EF41E050E00E944A2C4901DF
:105770005A019B01AC01A7EAB1E40E94862B6B01A0
:105780007C01ACEEB4EFA50194010E94942BDC01E6
:10579000CB018C0D9D1DAE1DBF1DB7FF03C0019732
:1057A000A109B04888839983AA83BB839F77DF913F
:1057B000CF91FF90EF90DF90CF90BF90AF909F90F0
:1057C0008F9008950E94992B089580E091E00E94A7
:1057D000992B0895A0E0B0E080930001909301011F
:1057E000A0930201B09303010895FC014150504081
:1057F00030F001900616D1F73197CF010895882730
:1058000099270895F999FECF92BD81BDF89A9927FD
:1058100080B50895A6E1B0E044E050E00C943C2C43
:10582000A8E1B0E042E050E00C943C2C262FF9991E
:10583000FECF92BD81BDF89A019700B4021639F0EF
:105840001FBA20BD0FB6F894FA9AF99A0FBE0895C0
:105850000396272F0E94172C0E94162C252F0E949A
:10586000172C242F0C94172C0196272F0E94172CED
:105870000C94162CDC01CB01FC01F999FECF06C07B
:10588000F2BDE1BDF89A319600B40D9241505040FE
:10589000B8F70895052E97FB1EF400940E94612C22
:1058A00057FD07D00E94402B07FC03D04EF40C9408
:1058B000612C50954095309521953F4F4F4F5F4F4C
:1058C000089590958095709561957F4F8F4F9F4F6C
:0658D0000895F894FFCFDB
:1058D60001000000010102001200121201191A1B38
:1058E6001C1D1E1F202122D6022808641E140A32FF
:1058F6001E20247D245E245A24562401E200E90059
:10590600EA00B500B600B700CD008301CC008A01DD
:105916009201940121022302240225022602270273
:105926002A02B300B4006F00700081828366F1F42E
:10593600F5F6F7973435909192933733C6F09594F0
:10594600966700010202020206060609090909090C
:10595600090F0F0F0F0F0F1515151819191919190A
:1059660019191919192324252525252525E200E9C4
:1059760000EA00B500B600B700CD008301CC008A6E
:105986000192019401210223022402250226022704
:0E599600022A02B300B4006F00700081828309
:00000001FF
